{
  "contractName": "BilateralEscrow",
  "sourceName": "src/BilateralEscrow.sol",
  "abi": [
    {
      "type": "constructor",
      "inputs": [
        {
          "name": "buyer_",
          "type": "address",
          "internalType": "address"
        },
        {
          "name": "seller_",
          "type": "address",
          "internalType": "address"
        },
        {
          "name": "token_",
          "type": "address",
          "internalType": "address"
        },
        {
          "name": "amount_",
          "type": "uint256",
          "internalType": "uint256"
        },
        {
          "name": "durationSeconds_",
          "type": "uint256",
          "internalType": "uint256"
        }
      ],
      "stateMutability": "nonpayable"
    },
    {
      "type": "function",
      "name": "amount",
      "inputs": [],
      "outputs": [
        {
          "name": "",
          "type": "uint256",
          "internalType": "uint256"
        }
      ],
      "stateMutability": "view"
    },
    {
      "type": "function",
      "name": "buyer",
      "inputs": [],
      "outputs": [
        {
          "name": "",
          "type": "address",
          "internalType": "address"
        }
      ],
      "stateMutability": "view"
    },
    {
      "type": "function",
      "name": "cancel",
      "inputs": [],
      "outputs": [],
      "stateMutability": "nonpayable"
    },
    {
      "type": "function",
      "name": "confirm",
      "inputs": [],
      "outputs": [],
      "stateMutability": "nonpayable"
    },
    {
      "type": "function",
      "name": "deadline",
      "inputs": [],
      "outputs": [
        {
          "name": "",
          "type": "uint256",
          "internalType": "uint256"
        }
      ],
      "stateMutability": "view"
    },
    {
      "type": "function",
      "name": "deposit",
      "inputs": [],
      "outputs": [],
      "stateMutability": "nonpayable"
    },
    {
      "type": "function",
      "name": "refund",
      "inputs": [],
      "outputs": [],
      "stateMutability": "nonpayable"
    },
    {
      "type": "function",
      "name": "seller",
      "inputs": [],
      "outputs": [
        {
          "name": "",
          "type": "address",
          "internalType": "address"
        }
      ],
      "stateMutability": "view"
    },
    {
      "type": "function",
      "name": "state",
      "inputs": [],
      "outputs": [
        {
          "name": "",
          "type": "uint8",
          "internalType": "enum BilateralEscrow.State"
        }
      ],
      "stateMutability": "view"
    },
    {
      "type": "function",
      "name": "token",
      "inputs": [],
      "outputs": [
        {
          "name": "",
          "type": "address",
          "internalType": "contract IERC20"
        }
      ],
      "stateMutability": "view"
    },
    {
      "type": "event",
      "name": "Cancelled",
      "inputs": [
        {
          "name": "buyer",
          "type": "address",
          "indexed": true,
          "internalType": "address"
        },
        {
          "name": "amount",
          "type": "uint256",
          "indexed": false,
          "internalType": "uint256"
        }
      ],
      "anonymous": false
    },
    {
      "type": "event",
      "name": "Deposited",
      "inputs": [
        {
          "name": "buyer",
          "type": "address",
          "indexed": true,
          "internalType": "address"
        },
        {
          "name": "amount",
          "type": "uint256",
          "indexed": false,
          "internalType": "uint256"
        }
      ],
      "anonymous": false
    },
    {
      "type": "event",
      "name": "Refunded",
      "inputs": [
        {
          "name": "buyer",
          "type": "address",
          "indexed": true,
          "internalType": "address"
        },
        {
          "name": "amount",
          "type": "uint256",
          "indexed": false,
          "internalType": "uint256"
        }
      ],
      "anonymous": false
    },
    {
      "type": "event",
      "name": "Released",
      "inputs": [
        {
          "name": "seller",
          "type": "address",
          "indexed": true,
          "internalType": "address"
        },
        {
          "name": "amount",
          "type": "uint256",
          "indexed": false,
          "internalType": "uint256"
        }
      ],
      "anonymous": false
    }
  ],
  "bytecode": {
    "object": "0x61012060405234801562000011575f80fd5b5060405162000f2938038062000f2983398101604081905262000034916200022a565b6001600160a01b0385166200007a5760405162461bcd60e51b8152602060048201526007602482015266062757965723d360cc1b60448201526064015b60405180910390fd5b6001600160a01b038416620000bd5760405162461bcd60e51b8152602060048201526008602482015267073656c6c65723d360c41b604482015260640162000071565b6001600160a01b038316620000ff5760405162461bcd60e51b81526020600482015260076024820152660746f6b656e3d360cc1b604482015260640162000071565b836001600160a01b0316856001600160a01b031603620001515760405162461bcd60e51b815260206004820152600c60248201526b313abcb2b91eb9b2b63632b960a11b604482015260640162000071565b5f82116200018d5760405162461bcd60e51b81526020600482015260086024820152670616d6f756e743d360c41b604482015260640162000071565b5f8111620001cb5760405162461bcd60e51b815260206004820152600a60248201526906475726174696f6e3d360b41b604482015260640162000071565b6001600160a01b0380861660805284811660a052831660c05260e0829052620001f5814262000283565b6101005250505f805460ff1916905550620002a9915050565b80516001600160a01b038116811462000225575f80fd5b919050565b5f805f805f60a086880312156200023f575f80fd5b6200024a866200020e565b94506200025a602087016200020e565b93506200026a604087016200020e565b6060870151608090970151959894975095949392505050565b80820180821115620002a357634e487b7160e01b5f52601160045260245ffd5b92915050565b60805160a05160c05160e05161010051610b8e6200039b5f395f818160e8015261020801525f8181610156015281816102ac015281816103a8015281816104a9015281816105a5015281816106b20152818161079c015281816108da015281816109d60152610a5901525f81816101a6015281816102d2015281816104cf015281816106da015261090001525f818160a401528181610481015261055a01525f818161012f015281816102840152818161035d015281816103ec015281816105de01528181610684015281816107c70152818161081d015281816108b20152818161098b0152610a0e0152610b8e5ff3fe608060405234801561000f575f80fd5b506004361061009b575f3560e01c8063aa8c217c11610063578063aa8c217c14610151578063c19d93fb14610178578063d0e30db014610191578063ea8a1af014610199578063fc0c546a146101a1575f80fd5b806308551a531461009f57806329dcb0cf146100e3578063590e1ae3146101185780637022b58e146101225780637150d8ae1461012a575b5f80fd5b6100c67f000000000000000000000000000000000000000000000000000000000000000081565b6040516001600160a01b0390911681526020015b60405180910390f35b61010a7f000000000000000000000000000000000000000000000000000000000000000081565b6040519081526020016100da565b6101206101c8565b005b6101206103e1565b6100c67f000000000000000000000000000000000000000000000000000000000000000081565b61010a7f000000000000000000000000000000000000000000000000000000000000000081565b5f546101849060ff1681565b6040516100da9190610a9b565b6101206105d3565b610120610812565b6100c67f000000000000000000000000000000000000000000000000000000000000000081565b60015f5460ff1660038111156101e0576101e0610a87565b146102065760405162461bcd60e51b81526004016101fd90610ac1565b60405180910390fd5b7f000000000000000000000000000000000000000000000000000000000000000042116102615760405162461bcd60e51b8152602060048201526009602482015268746f6f206561726c7960b81b60448201526064016101fd565b5f805460ff1916600317815560405163a9059cbb60e01b81526001600160a01b037f0000000000000000000000000000000000000000000000000000000000000000811660048301527f000000000000000000000000000000000000000000000000000000000000000060248301527f0000000000000000000000000000000000000000000000000000000000000000169063a9059cbb906044016020604051808303815f875af1158015610318573d5f803e3d5ffd5b505050506040513d601f19601f8201168201806040525081019061033c9190610ae5565b90508061035b5760405162461bcd60e51b81526004016101fd90610b0b565b7f00000000000000000000000000000000000000000000000000000000000000006001600160a01b03167fd7dee2702d63ad89917b6a4da9981c90c4d24f8c2bdfd64c604ecae57d8d06517f00000000000000000000000000000000000000000000000000000000000000006040516103d691815260200190565b60405180910390a250565b336001600160a01b037f000000000000000000000000000000000000000000000000000000000000000016146104295760405162461bcd60e51b81526004016101fd90610b34565b60015f5460ff16600381111561044157610441610a87565b1461045e5760405162461bcd60e51b81526004016101fd90610ac1565b5f805460ff1916600217815560405163a9059cbb60e01b81526001600160a01b037f0000000000000000000000000000000000000000000000000000000000000000811660048301527f000000000000000000000000000000000000000000000000000000000000000060248301527f0000000000000000000000000000000000000000000000000000000000000000169063a9059cbb906044016020604051808303815f875af1158015610515573d5f803e3d5ffd5b505050506040513d601f19601f820116820180604052508101906105399190610ae5565b9050806105585760405162461bcd60e51b81526004016101fd90610b0b565b7f00000000000000000000000000000000000000000000000000000000000000006001600160a01b03167fb21fb52d5749b80f3182f8c6992236b5e5576681880914484d7f4c9b062e619e7f00000000000000000000000000000000000000000000000000000000000000006040516103d691815260200190565b336001600160a01b037f0000000000000000000000000000000000000000000000000000000000000000161461061b5760405162461bcd60e51b81526004016101fd90610b34565b5f805460ff16600381111561063257610632610a87565b1461066d5760405162461bcd60e51b815260206004820152600b60248201526a1b9bdd0810dc99585d195960aa1b60448201526064016101fd565b6040516323b872dd60e01b81526001600160a01b037f0000000000000000000000000000000000000000000000000000000000000000811660048301523060248301527f000000000000000000000000000000000000000000000000000000000000000060448301525f917f0000000000000000000000000000000000000000000000000000000000000000909116906323b872dd906064016020604051808303815f875af1158015610722573d5f803e3d5ffd5b505050506040513d601f19601f820116820180604052508101906107469190610ae5565b90508061078b5760405162461bcd60e51b81526020600482015260136024820152721d1c985b9cd9995c919c9bdb4819985a5b1959606a1b60448201526064016101fd565b5f805460ff191660011790556040517f000000000000000000000000000000000000000000000000000000000000000081526001600160a01b037f000000000000000000000000000000000000000000000000000000000000000016907f2da466a7b24304f47e87fa2e1e5a81b9831ce54fec19055ce277ca2f39ba42c4906020016103d6565b336001600160a01b037f0000000000000000000000000000000000000000000000000000000000000000161461085a5760405162461bcd60e51b81526004016101fd90610b34565b60015f5460ff16600381111561087257610872610a87565b1461088f5760405162461bcd60e51b81526004016101fd90610ac1565b5f805460ff1916600317815560405163a9059cbb60e01b81526001600160a01b037f0000000000000000000000000000000000000000000000000000000000000000811660048301527f000000000000000000000000000000000000000000000000000000000000000060248301527f0000000000000000000000000000000000000000000000000000000000000000169063a9059cbb906044016020604051808303815f875af1158015610946573d5f803e3d5ffd5b505050506040513d601f19601f8201168201806040525081019061096a9190610ae5565b9050806109895760405162461bcd60e51b81526004016101fd90610b0b565b7f00000000000000000000000000000000000000000000000000000000000000006001600160a01b03167f36ea5cd5608625e789af0282eecdb4eae1cb7c1cf6d0ec3f9a84f35be850260b7f0000000000000000000000000000000000000000000000000000000000000000604051610a0491815260200190565b60405180910390a27f00000000000000000000000000000000000000000000000000000000000000006001600160a01b03167fd7dee2702d63ad89917b6a4da9981c90c4d24f8c2bdfd64c604ecae57d8d06517f00000000000000000000000000000000000000000000000000000000000000006040516103d691815260200190565b634e487b7160e01b5f52602160045260245ffd5b6020810160048310610abb57634e487b7160e01b5f52602160045260245ffd5b91905290565b6020808252600a90820152691b9bdd08119d5b99195960b21b604082015260600190565b5f60208284031215610af5575f80fd5b81518015158114610b04575f80fd5b9392505050565b6020808252600f908201526e1d1c985b9cd9995c8819985a5b1959608a1b604082015260600190565b6020808252600a908201526937b7363c90313abcb2b960b11b60408201526060019056fea2646970667358221220eee59e53d7d085fa622607323d306349ecc42eeb96d6f73c1b0e03e99931bc6664736f6c63430008140033"
  }
}